{
  "_format": "hh-sol-artifact-1",
  "contractName": "UniNFT",
  "sourceName": "contracts/UniNFT.sol",
  "abi": [
    {
      "inputs": [
        {
          "internalType": "string",
          "name": "initBaseURI",
          "type": "string"
        },
        {
          "internalType": "string",
          "name": "initNotRevealedURI",
          "type": "string"
        }
      ],
      "stateMutability": "nonpayable",
      "type": "constructor"
    },
    {
      "inputs": [],
      "name": "ApprovalCallerNotOwnerNorApproved",
      "type": "error"
    },
    {
      "inputs": [],
      "name": "ApprovalQueryForNonexistentToken",
      "type": "error"
    },
    {
      "inputs": [],
      "name": "ApprovalToCurrentOwner",
      "type": "error"
    },
    {
      "inputs": [],
      "name": "ApproveToCaller",
      "type": "error"
    },
    {
      "inputs": [],
      "name": "BalanceQueryForZeroAddress",
      "type": "error"
    },
    {
      "inputs": [],
      "name": "MintToZeroAddress",
      "type": "error"
    },
    {
      "inputs": [],
      "name": "MintZeroQuantity",
      "type": "error"
    },
    {
      "inputs": [],
      "name": "OwnerQueryForNonexistentToken",
      "type": "error"
    },
    {
      "inputs": [],
      "name": "TransferCallerNotOwnerNorApproved",
      "type": "error"
    },
    {
      "inputs": [],
      "name": "TransferFromIncorrectOwner",
      "type": "error"
    },
    {
      "inputs": [],
      "name": "TransferToNonERC721ReceiverImplementer",
      "type": "error"
    },
    {
      "inputs": [],
      "name": "TransferToZeroAddress",
      "type": "error"
    },
    {
      "inputs": [],
      "name": "URIQueryForNonexistentToken",
      "type": "error"
    },
    {
      "anonymous": false,
      "inputs": [
        {
          "indexed": true,
          "internalType": "address",
          "name": "owner",
          "type": "address"
        },
        {
          "indexed": true,
          "internalType": "address",
          "name": "approved",
          "type": "address"
        },
        {
          "indexed": true,
          "internalType": "uint256",
          "name": "tokenId",
          "type": "uint256"
        }
      ],
      "name": "Approval",
      "type": "event"
    },
    {
      "anonymous": false,
      "inputs": [
        {
          "indexed": true,
          "internalType": "address",
          "name": "owner",
          "type": "address"
        },
        {
          "indexed": true,
          "internalType": "address",
          "name": "operator",
          "type": "address"
        },
        {
          "indexed": false,
          "internalType": "bool",
          "name": "approved",
          "type": "bool"
        }
      ],
      "name": "ApprovalForAll",
      "type": "event"
    },
    {
      "anonymous": false,
      "inputs": [
        {
          "indexed": false,
          "internalType": "string",
          "name": "newBaseURI",
          "type": "string"
        }
      ],
      "name": "BaseURIChanged",
      "type": "event"
    },
    {
      "anonymous": false,
      "inputs": [
        {
          "indexed": false,
          "internalType": "address",
          "name": "minter",
          "type": "address"
        },
        {
          "indexed": false,
          "internalType": "uint256",
          "name": "amount",
          "type": "uint256"
        }
      ],
      "name": "Minted",
      "type": "event"
    },
    {
      "anonymous": false,
      "inputs": [
        {
          "indexed": true,
          "internalType": "address",
          "name": "previousOwner",
          "type": "address"
        },
        {
          "indexed": true,
          "internalType": "address",
          "name": "newOwner",
          "type": "address"
        }
      ],
      "name": "OwnershipTransferred",
      "type": "event"
    },
    {
      "anonymous": false,
      "inputs": [
        {
          "indexed": false,
          "internalType": "enum UniNFT.Status",
          "name": "status",
          "type": "uint8"
        }
      ],
      "name": "StatusChanged",
      "type": "event"
    },
    {
      "anonymous": false,
      "inputs": [
        {
          "indexed": true,
          "internalType": "address",
          "name": "from",
          "type": "address"
        },
        {
          "indexed": true,
          "internalType": "address",
          "name": "to",
          "type": "address"
        },
        {
          "indexed": true,
          "internalType": "uint256",
          "name": "tokenId",
          "type": "uint256"
        }
      ],
      "name": "Transfer",
      "type": "event"
    },
    {
      "inputs": [],
      "name": "MAX_SUPPLY",
      "outputs": [
        {
          "internalType": "uint256",
          "name": "",
          "type": "uint256"
        }
      ],
      "stateMutability": "view",
      "type": "function"
    },
    {
      "inputs": [],
      "name": "_revealed",
      "outputs": [
        {
          "internalType": "bool",
          "name": "",
          "type": "bool"
        }
      ],
      "stateMutability": "view",
      "type": "function"
    },
    {
      "inputs": [
        {
          "internalType": "address",
          "name": "to",
          "type": "address"
        },
        {
          "internalType": "uint256",
          "name": "tokenId",
          "type": "uint256"
        }
      ],
      "name": "approve",
      "outputs": [],
      "stateMutability": "nonpayable",
      "type": "function"
    },
    {
      "inputs": [
        {
          "internalType": "address",
          "name": "owner",
          "type": "address"
        }
      ],
      "name": "balanceOf",
      "outputs": [
        {
          "internalType": "uint256",
          "name": "",
          "type": "uint256"
        }
      ],
      "stateMutability": "view",
      "type": "function"
    },
    {
      "inputs": [],
      "name": "baseExtension",
      "outputs": [
        {
          "internalType": "string",
          "name": "",
          "type": "string"
        }
      ],
      "stateMutability": "view",
      "type": "function"
    },
    {
      "inputs": [],
      "name": "flipReveal",
      "outputs": [],
      "stateMutability": "nonpayable",
      "type": "function"
    },
    {
      "inputs": [
        {
          "internalType": "uint256",
          "name": "tokenId",
          "type": "uint256"
        }
      ],
      "name": "getApproved",
      "outputs": [
        {
          "internalType": "address",
          "name": "",
          "type": "address"
        }
      ],
      "stateMutability": "view",
      "type": "function"
    },
    {
      "inputs": [
        {
          "internalType": "address",
          "name": "owner",
          "type": "address"
        },
        {
          "internalType": "address",
          "name": "operator",
          "type": "address"
        }
      ],
      "name": "isApprovedForAll",
      "outputs": [
        {
          "internalType": "bool",
          "name": "",
          "type": "bool"
        }
      ],
      "stateMutability": "view",
      "type": "function"
    },
    {
      "inputs": [],
      "name": "maxMintPerAddr",
      "outputs": [
        {
          "internalType": "uint256",
          "name": "",
          "type": "uint256"
        }
      ],
      "stateMutability": "view",
      "type": "function"
    },
    {
      "inputs": [],
      "name": "merkleRoot",
      "outputs": [
        {
          "internalType": "bytes32",
          "name": "",
          "type": "bytes32"
        }
      ],
      "stateMutability": "view",
      "type": "function"
    },
    {
      "inputs": [
        {
          "internalType": "uint256",
          "name": "quantity",
          "type": "uint256"
        }
      ],
      "name": "mint",
      "outputs": [],
      "stateMutability": "payable",
      "type": "function"
    },
    {
      "inputs": [],
      "name": "mintPrice",
      "outputs": [
        {
          "internalType": "uint256",
          "name": "",
          "type": "uint256"
        }
      ],
      "stateMutability": "view",
      "type": "function"
    },
    {
      "inputs": [],
      "name": "name",
      "outputs": [
        {
          "internalType": "string",
          "name": "",
          "type": "string"
        }
      ],
      "stateMutability": "view",
      "type": "function"
    },
    {
      "inputs": [],
      "name": "notRevealedURI",
      "outputs": [
        {
          "internalType": "string",
          "name": "",
          "type": "string"
        }
      ],
      "stateMutability": "view",
      "type": "function"
    },
    {
      "inputs": [
        {
          "internalType": "address",
          "name": "addr",
          "type": "address"
        }
      ],
      "name": "numberMinted",
      "outputs": [
        {
          "internalType": "uint256",
          "name": "",
          "type": "uint256"
        }
      ],
      "stateMutability": "view",
      "type": "function"
    },
    {
      "inputs": [],
      "name": "owner",
      "outputs": [
        {
          "internalType": "address",
          "name": "",
          "type": "address"
        }
      ],
      "stateMutability": "view",
      "type": "function"
    },
    {
      "inputs": [
        {
          "internalType": "uint256",
          "name": "tokenId",
          "type": "uint256"
        }
      ],
      "name": "ownerOf",
      "outputs": [
        {
          "internalType": "address",
          "name": "",
          "type": "address"
        }
      ],
      "stateMutability": "view",
      "type": "function"
    },
    {
      "inputs": [],
      "name": "renounceOwnership",
      "outputs": [],
      "stateMutability": "nonpayable",
      "type": "function"
    },
    {
      "inputs": [
        {
          "internalType": "address",
          "name": "from",
          "type": "address"
        },
        {
          "internalType": "address",
          "name": "to",
          "type": "address"
        },
        {
          "internalType": "uint256",
          "name": "tokenId",
          "type": "uint256"
        }
      ],
      "name": "safeTransferFrom",
      "outputs": [],
      "stateMutability": "nonpayable",
      "type": "function"
    },
    {
      "inputs": [
        {
          "internalType": "address",
          "name": "from",
          "type": "address"
        },
        {
          "internalType": "address",
          "name": "to",
          "type": "address"
        },
        {
          "internalType": "uint256",
          "name": "tokenId",
          "type": "uint256"
        },
        {
          "internalType": "bytes",
          "name": "_data",
          "type": "bytes"
        }
      ],
      "name": "safeTransferFrom",
      "outputs": [],
      "stateMutability": "nonpayable",
      "type": "function"
    },
    {
      "inputs": [
        {
          "internalType": "address",
          "name": "operator",
          "type": "address"
        },
        {
          "internalType": "bool",
          "name": "approved",
          "type": "bool"
        }
      ],
      "name": "setApprovalForAll",
      "outputs": [],
      "stateMutability": "nonpayable",
      "type": "function"
    },
    {
      "inputs": [
        {
          "internalType": "string",
          "name": "_newBaseExtension",
          "type": "string"
        }
      ],
      "name": "setBaseExtension",
      "outputs": [],
      "stateMutability": "nonpayable",
      "type": "function"
    },
    {
      "inputs": [
        {
          "internalType": "string",
          "name": "newBaseURI",
          "type": "string"
        }
      ],
      "name": "setBaseURI",
      "outputs": [],
      "stateMutability": "nonpayable",
      "type": "function"
    },
    {
      "inputs": [
        {
          "internalType": "uint256",
          "name": "_maxMintPerAddr",
          "type": "uint256"
        }
      ],
      "name": "setMaxMintPerAddr",
      "outputs": [],
      "stateMutability": "nonpayable",
      "type": "function"
    },
    {
      "inputs": [
        {
          "internalType": "bytes32",
          "name": "_MerkleRoot",
          "type": "bytes32"
        }
      ],
      "name": "setMerkleRoot",
      "outputs": [],
      "stateMutability": "nonpayable",
      "type": "function"
    },
    {
      "inputs": [
        {
          "internalType": "uint256",
          "name": "_mintPrice",
          "type": "uint256"
        }
      ],
      "name": "setMintPrice",
      "outputs": [],
      "stateMutability": "nonpayable",
      "type": "function"
    },
    {
      "inputs": [
        {
          "internalType": "string",
          "name": "_notRevealedURI",
          "type": "string"
        }
      ],
      "name": "setNotRevealedURI",
      "outputs": [],
      "stateMutability": "nonpayable",
      "type": "function"
    },
    {
      "inputs": [
        {
          "internalType": "enum UniNFT.Status",
          "name": "_status",
          "type": "uint8"
        }
      ],
      "name": "setStatus",
      "outputs": [],
      "stateMutability": "nonpayable",
      "type": "function"
    },
    {
      "inputs": [],
      "name": "status",
      "outputs": [
        {
          "internalType": "enum UniNFT.Status",
          "name": "",
          "type": "uint8"
        }
      ],
      "stateMutability": "view",
      "type": "function"
    },
    {
      "inputs": [
        {
          "internalType": "bytes4",
          "name": "interfaceId",
          "type": "bytes4"
        }
      ],
      "name": "supportsInterface",
      "outputs": [
        {
          "internalType": "bool",
          "name": "",
          "type": "bool"
        }
      ],
      "stateMutability": "view",
      "type": "function"
    },
    {
      "inputs": [],
      "name": "symbol",
      "outputs": [
        {
          "internalType": "string",
          "name": "",
          "type": "string"
        }
      ],
      "stateMutability": "view",
      "type": "function"
    },
    {
      "inputs": [
        {
          "internalType": "uint256",
          "name": "tokenId",
          "type": "uint256"
        }
      ],
      "name": "tokenURI",
      "outputs": [
        {
          "internalType": "string",
          "name": "",
          "type": "string"
        }
      ],
      "stateMutability": "view",
      "type": "function"
    },
    {
      "inputs": [],
      "name": "totalSupply",
      "outputs": [
        {
          "internalType": "uint256",
          "name": "",
          "type": "uint256"
        }
      ],
      "stateMutability": "view",
      "type": "function"
    },
    {
      "inputs": [
        {
          "internalType": "address",
          "name": "from",
          "type": "address"
        },
        {
          "internalType": "address",
          "name": "to",
          "type": "address"
        },
        {
          "internalType": "uint256",
          "name": "tokenId",
          "type": "uint256"
        }
      ],
      "name": "transferFrom",
      "outputs": [],
      "stateMutability": "nonpayable",
      "type": "function"
    },
    {
      "inputs": [
        {
          "internalType": "address",
          "name": "newOwner",
          "type": "address"
        }
      ],
      "name": "transferOwnership",
      "outputs": [],
      "stateMutability": "nonpayable",
      "type": "function"
    },
    {
      "inputs": [
        {
          "internalType": "bytes32[]",
          "name": "merkleProof",
          "type": "bytes32[]"
        },
        {
          "internalType": "uint256",
          "name": "quantity",
          "type": "uint256"
        }
      ],
      "name": "whitelistMint",
      "outputs": [],
      "stateMutability": "payable",
      "type": "function"
    },
    {
      "inputs": [
        {
          "internalType": "address",
          "name": "to",
          "type": "address"
        }
      ],
      "name": "withdraw",
      "outputs": [],
      "stateMutability": "nonpayable",
      "type": "function"
    }
  ],
  "bytecode": "0x60806040526000600860146101000a81548160ff0219169083151502179055506040518060400160405280600581526020017f2e6a736f6e000000000000000000000000000000000000000000000000000000815250600b90805190602001906200006c92919062000293565b506005600c5566470de4df820000600d553480156200008a57600080fd5b5060405162004bb638038062004bb68339818101604052810190620000b09190620003b5565b6040518060400160405280600b81526020017f556e69636f726e204e46540000000000000000000000000000000000000000008152506040518060400160405280600481526020017f55432d4e0000000000000000000000000000000000000000000000000000000081525081600290805190602001906200013492919062000293565b5080600390805190602001906200014d92919062000293565b506200015e620001c060201b60201c565b6000819055505050620001866200017a620001c560201b60201c565b620001cd60201b60201c565b81600990805190602001906200019e92919062000293565b5080600a9080519060200190620001b792919062000293565b50505062000598565b600090565b600033905090565b6000600860009054906101000a900473ffffffffffffffffffffffffffffffffffffffff16905081600860006101000a81548173ffffffffffffffffffffffffffffffffffffffff021916908373ffffffffffffffffffffffffffffffffffffffff1602179055508173ffffffffffffffffffffffffffffffffffffffff168173ffffffffffffffffffffffffffffffffffffffff167f8be0079c531659141344cd1fd0a4f28419497f9722a3daafe3b4186f6b6457e060405160405180910390a35050565b828054620002a190620004bd565b90600052602060002090601f016020900481019282620002c5576000855562000311565b82601f10620002e057805160ff191683800117855562000311565b8280016001018555821562000311579182015b8281111562000310578251825591602001919060010190620002f3565b5b50905062000320919062000324565b5090565b5b808211156200033f57600081600090555060010162000325565b5090565b60006200035a620003548462000451565b62000428565b9050828152602081018484840111156200037357600080fd5b6200038084828562000487565b509392505050565b600082601f8301126200039a57600080fd5b8151620003ac84826020860162000343565b91505092915050565b60008060408385031215620003c957600080fd5b600083015167ffffffffffffffff811115620003e457600080fd5b620003f28582860162000388565b925050602083015167ffffffffffffffff8111156200041057600080fd5b6200041e8582860162000388565b9150509250929050565b60006200043462000447565b9050620004428282620004f3565b919050565b6000604051905090565b600067ffffffffffffffff8211156200046f576200046e62000558565b5b6200047a8262000587565b9050602081019050919050565b60005b83811015620004a75780820151818401526020810190506200048a565b83811115620004b7576000848401525b50505050565b60006002820490506001821680620004d657607f821691505b60208210811415620004ed57620004ec62000529565b5b50919050565b620004fe8262000587565b810181811067ffffffffffffffff8211171562000520576200051f62000558565b5b80604052505050565b7f4e487b7100000000000000000000000000000000000000000000000000000000600052602260045260246000fd5b7f4e487b7100000000000000000000000000000000000000000000000000000000600052604160045260246000fd5b6000601f19601f8301169050919050565b61460e80620005a86000396000f3fe60806040526004361061021a5760003560e01c80636ebeac8511610123578063b88d4fde116100ab578063dc33e6811161006f578063dc33e6811461077d578063e985e9c5146107ba578063f2c4ce1e146107f7578063f2fde38b14610820578063f4a0a528146108495761021a565b8063b88d4fde14610698578063c1dffe32146106c1578063c6682862146106ec578063c87b56dd14610717578063da3ef23f146107545761021a565b80637cb64759116100f25780637cb64759146105d45780638da5cb5b146105fd57806395d89b4114610628578063a0712d6814610653578063a22cb4651461066f5761021a565b80636ebeac851461052a57806370a0823114610555578063715018a61461059257806372250380146105a95761021a565b80632e49d78b116101a657806342842e0e1161017557806342842e0e1461044757806351cff8d91461047057806355f804b3146104995780636352211e146104c25780636817c76c146104ff5761021a565b80632e49d78b146103b15780632eb4a7ab146103da57806332cb6b0c146104055780633b84d9c6146104305761021a565b80631300c014116101ed5780631300c014146102ed57806318160ddd14610316578063200d2ed21461034157806323b872dd1461036c5780632904e6d9146103955761021a565b806301ffc9a71461021f57806306fdde031461025c578063081812fc14610287578063095ea7b3146102c4575b600080fd5b34801561022b57600080fd5b506102466004803603810190610241919061380c565b610872565b6040516102539190613cf2565b60405180910390f35b34801561026857600080fd5b50610271610954565b60405161027e9190613d67565b60405180910390f35b34801561029357600080fd5b506102ae60048036038101906102a9919061390d565b6109e6565b6040516102bb9190613c62565b60405180910390f35b3480156102d057600080fd5b506102eb60048036038101906102e6919061374f565b610a62565b005b3480156102f957600080fd5b50610314600480360381019061030f919061390d565b610b67565b005b34801561032257600080fd5b5061032b610bed565b6040516103389190613e89565b60405180910390f35b34801561034d57600080fd5b50610356610c04565b6040516103639190613d28565b60405180910390f35b34801561037857600080fd5b50610393600480360381019061038e9190613649565b610c17565b005b6103af60048036038101906103aa919061378b565b610c27565b005b3480156103bd57600080fd5b506103d860048036038101906103d3919061385e565b610e38565b005b3480156103e657600080fd5b506103ef610f4d565b6040516103fc9190613d0d565b60405180910390f35b34801561041157600080fd5b5061041a610f53565b6040516104279190613e89565b60405180910390f35b34801561043c57600080fd5b50610445610f59565b005b34801561045357600080fd5b5061046e60048036038101906104699190613649565b611001565b005b34801561047c57600080fd5b50610497600480360381019061049291906135e4565b611021565b005b3480156104a557600080fd5b506104c060048036038101906104bb9190613887565b6110ed565b005b3480156104ce57600080fd5b506104e960048036038101906104e4919061390d565b6111b8565b6040516104f69190613c62565b60405180910390f35b34801561050b57600080fd5b506105146111ce565b6040516105219190613e89565b60405180910390f35b34801561053657600080fd5b5061053f6111d4565b60405161054c9190613cf2565b60405180910390f35b34801561056157600080fd5b5061057c600480360381019061057791906135e4565b6111e7565b6040516105899190613e89565b60405180910390f35b34801561059e57600080fd5b506105a76112b7565b005b3480156105b557600080fd5b506105be61133f565b6040516105cb9190613d67565b60405180910390f35b3480156105e057600080fd5b506105fb60048036038101906105f691906137e3565b6113cd565b005b34801561060957600080fd5b50610612611453565b60405161061f9190613c62565b60405180910390f35b34801561063457600080fd5b5061063d61147d565b60405161064a9190613d67565b60405180910390f35b61066d6004803603810190610668919061390d565b61150f565b005b34801561067b57600080fd5b5061069660048036038101906106919190613713565b61164b565b005b3480156106a457600080fd5b506106bf60048036038101906106ba9190613698565b6117c3565b005b3480156106cd57600080fd5b506106d661183b565b6040516106e39190613e89565b60405180910390f35b3480156106f857600080fd5b50610701611841565b60405161070e9190613d67565b60405180910390f35b34801561072357600080fd5b5061073e6004803603810190610739919061390d565b6118cf565b60405161074b9190613d67565b60405180910390f35b34801561076057600080fd5b5061077b600480360381019061077691906138cc565b6119b9565b005b34801561078957600080fd5b506107a4600480360381019061079f91906135e4565b611a4f565b6040516107b19190613e89565b60405180910390f35b3480156107c657600080fd5b506107e160048036038101906107dc919061360d565b611a61565b6040516107ee9190613cf2565b60405180910390f35b34801561080357600080fd5b5061081e600480360381019061081991906138cc565b611af5565b005b34801561082c57600080fd5b50610847600480360381019061084291906135e4565b611b8b565b005b34801561085557600080fd5b50610870600480360381019061086b919061390d565b611c83565b005b60007f80ac58cd000000000000000000000000000000000000000000000000000000007bffffffffffffffffffffffffffffffffffffffffffffffffffffffff1916827bffffffffffffffffffffffffffffffffffffffffffffffffffffffff1916148061093d57507f5b5e139f000000000000000000000000000000000000000000000000000000007bffffffffffffffffffffffffffffffffffffffffffffffffffffffff1916827bffffffffffffffffffffffffffffffffffffffffffffffffffffffff1916145b8061094d575061094c82611d09565b5b9050919050565b6060600280546109639061417d565b80601f016020809104026020016040519081016040528092919081815260200182805461098f9061417d565b80156109dc5780601f106109b1576101008083540402835291602001916109dc565b820191906000526020600020905b8154815290600101906020018083116109bf57829003601f168201915b5050505050905090565b60006109f182611d73565b610a27576040517fcf4700e400000000000000000000000000000000000000000000000000000000815260040160405180910390fd5b6006600083815260200190815260200160002060009054906101000a900473ffffffffffffffffffffffffffffffffffffffff169050919050565b6000610a6d826111b8565b90508073ffffffffffffffffffffffffffffffffffffffff168373ffffffffffffffffffffffffffffffffffffffff161415610ad5576040517f943f7b8c00000000000000000000000000000000000000000000000000000000815260040160405180910390fd5b8073ffffffffffffffffffffffffffffffffffffffff16610af4611dc1565b73ffffffffffffffffffffffffffffffffffffffff1614610b5757610b2081610b1b611dc1565b611a61565b610b56576040517fcfb3b94200000000000000000000000000000000000000000000000000000000815260040160405180910390fd5b5b610b62838383611dc9565b505050565b610b6f611dc1565b73ffffffffffffffffffffffffffffffffffffffff16610b8d611453565b73ffffffffffffffffffffffffffffffffffffffff1614610be3576040517f08c379a0000000000000000000000000000000000000000000000000000000008152600401610bda90613e09565b60405180910390fd5b80600c8190555050565b6000610bf7611e7b565b6001546000540303905090565b600860159054906101000a900460ff1681565b610c22838383611e80565b505050565b3373ffffffffffffffffffffffffffffffffffffffff163273ffffffffffffffffffffffffffffffffffffffff1614610c95576040517f08c379a0000000000000000000000000000000000000000000000000000000008152600401610c8c90613de9565b60405180910390fd5b60026003811115610ccf577f4e487b7100000000000000000000000000000000000000000000000000000000600052602160045260246000fd5b600860159054906101000a900460ff166003811115610d17577f4e487b7100000000000000000000000000000000000000000000000000000000600052602160045260246000fd5b1480610da2575060016003811115610d58577f4e487b7100000000000000000000000000000000000000000000000000000000600052602160045260246000fd5b600860159054906101000a900460ff166003811115610da0577f4e487b7100000000000000000000000000000000000000000000000000000000600052602160045260246000fd5b145b610de1576040517f08c379a0000000000000000000000000000000000000000000000000000000008152600401610dd890613e49565b60405180910390fd5b610deb8383612336565b610e2a576040517f08c379a0000000000000000000000000000000000000000000000000000000008152600401610e2190613e69565b60405180910390fd5b610e33816123b4565b505050565b610e40611dc1565b73ffffffffffffffffffffffffffffffffffffffff16610e5e611453565b73ffffffffffffffffffffffffffffffffffffffff1614610eb4576040517f08c379a0000000000000000000000000000000000000000000000000000000008152600401610eab90613e09565b60405180910390fd5b80600860156101000a81548160ff02191690836003811115610eff577f4e487b7100000000000000000000000000000000000000000000000000000000600052602160045260246000fd5b02179055507fafa725e7f44cadb687a7043853fa1a7e7b8f0da74ce87ec546e9420f04da8c1e600860159054906101000a900460ff16604051610f429190613d28565b60405180910390a150565b600e5481565b6103e881565b610f61611dc1565b73ffffffffffffffffffffffffffffffffffffffff16610f7f611453565b73ffffffffffffffffffffffffffffffffffffffff1614610fd5576040517f08c379a0000000000000000000000000000000000000000000000000000000008152600401610fcc90613e09565b60405180910390fd5b600860149054906101000a900460ff1615600860146101000a81548160ff021916908315150217905550565b61101c838383604051806020016040528060008152506117c3565b505050565b611029611dc1565b73ffffffffffffffffffffffffffffffffffffffff16611047611453565b73ffffffffffffffffffffffffffffffffffffffff161461109d576040517f08c379a000000000000000000000000000000000000000000000000000000000815260040161109490613e09565b60405180910390fd5b60004790508173ffffffffffffffffffffffffffffffffffffffff166108fc829081150290604051600060405180830381858888f193505050501580156110e8573d6000803e3d6000fd5b505050565b6110f5611dc1565b73ffffffffffffffffffffffffffffffffffffffff16611113611453565b73ffffffffffffffffffffffffffffffffffffffff1614611169576040517f08c379a000000000000000000000000000000000000000000000000000000000815260040161116090613e09565b60405180910390fd5b81816009919061117a929190613281565b507f5411e8ebf1636d9e83d5fc4900bf80cbac82e8790da2a4c94db4895e889eedf682826040516111ac929190613d43565b60405180910390a15050565b60006111c38261250f565b600001519050919050565b600d5481565b600860149054906101000a900460ff1681565b60008073ffffffffffffffffffffffffffffffffffffffff168273ffffffffffffffffffffffffffffffffffffffff16141561124f576040517f8f4eb60400000000000000000000000000000000000000000000000000000000815260040160405180910390fd5b600560008373ffffffffffffffffffffffffffffffffffffffff1673ffffffffffffffffffffffffffffffffffffffff16815260200190815260200160002060000160009054906101000a900467ffffffffffffffff1667ffffffffffffffff169050919050565b6112bf611dc1565b73ffffffffffffffffffffffffffffffffffffffff166112dd611453565b73ffffffffffffffffffffffffffffffffffffffff1614611333576040517f08c379a000000000000000000000000000000000000000000000000000000000815260040161132a90613e09565b60405180910390fd5b61133d600061279a565b565b600a805461134c9061417d565b80601f01602080910402602001604051908101604052809291908181526020018280546113789061417d565b80156113c55780601f1061139a576101008083540402835291602001916113c5565b820191906000526020600020905b8154815290600101906020018083116113a857829003601f168201915b505050505081565b6113d5611dc1565b73ffffffffffffffffffffffffffffffffffffffff166113f3611453565b73ffffffffffffffffffffffffffffffffffffffff1614611449576040517f08c379a000000000000000000000000000000000000000000000000000000000815260040161144090613e09565b60405180910390fd5b80600e8190555050565b6000600860009054906101000a900473ffffffffffffffffffffffffffffffffffffffff16905090565b60606003805461148c9061417d565b80601f01602080910402602001604051908101604052809291908181526020018280546114b89061417d565b80156115055780601f106114da57610100808354040283529160200191611505565b820191906000526020600020905b8154815290600101906020018083116114e857829003601f168201915b5050505050905090565b3373ffffffffffffffffffffffffffffffffffffffff163273ffffffffffffffffffffffffffffffffffffffff161461157d576040517f08c379a000000000000000000000000000000000000000000000000000000000815260040161157490613de9565b60405180910390fd5b600260038111156115b7577f4e487b7100000000000000000000000000000000000000000000000000000000600052602160045260246000fd5b600860159054906101000a900460ff1660038111156115ff577f4e487b7100000000000000000000000000000000000000000000000000000000600052602160045260246000fd5b1461163f576040517f08c379a000000000000000000000000000000000000000000000000000000000815260040161163690613e49565b60405180910390fd5b611648816123b4565b50565b611653611dc1565b73ffffffffffffffffffffffffffffffffffffffff168273ffffffffffffffffffffffffffffffffffffffff1614156116b8576040517fb06307db00000000000000000000000000000000000000000000000000000000815260040160405180910390fd5b80600760006116c5611dc1565b73ffffffffffffffffffffffffffffffffffffffff1673ffffffffffffffffffffffffffffffffffffffff16815260200190815260200160002060008473ffffffffffffffffffffffffffffffffffffffff1673ffffffffffffffffffffffffffffffffffffffff16815260200190815260200160002060006101000a81548160ff0219169083151502179055508173ffffffffffffffffffffffffffffffffffffffff16611772611dc1565b73ffffffffffffffffffffffffffffffffffffffff167f17307eab39ab6107e8899845ad3d59bd9653f200f220920489ca2b5937696c31836040516117b79190613cf2565b60405180910390a35050565b6117ce848484611e80565b6117ed8373ffffffffffffffffffffffffffffffffffffffff16612860565b15611835576117fe84848484612883565b611834576040517fd1a57ed600000000000000000000000000000000000000000000000000000000815260040160405180910390fd5b5b50505050565b600c5481565b600b805461184e9061417d565b80601f016020809104026020016040519081016040528092919081815260200182805461187a9061417d565b80156118c75780601f1061189c576101008083540402835291602001916118c7565b820191906000526020600020905b8154815290600101906020018083116118aa57829003601f168201915b505050505081565b606060006118dc836129e3565b905060001515600860149054906101000a900460ff161515141561198d57600a80546119079061417d565b80601f01602080910402602001604051908101604052809291908181526020018280546119339061417d565b80156119805780601f1061195557610100808354040283529160200191611980565b820191906000526020600020905b81548152906001019060200180831161196357829003601f168201915b50505050509150506119b4565b80600b6040516020016119a1929190613c3e565b6040516020818303038152906040529150505b919050565b6119c1611dc1565b73ffffffffffffffffffffffffffffffffffffffff166119df611453565b73ffffffffffffffffffffffffffffffffffffffff1614611a35576040517f08c379a0000000000000000000000000000000000000000000000000000000008152600401611a2c90613e09565b60405180910390fd5b80600b9080519060200190611a4b929190613307565b5050565b6000611a5a82612a82565b9050919050565b6000600760008473ffffffffffffffffffffffffffffffffffffffff1673ffffffffffffffffffffffffffffffffffffffff16815260200190815260200160002060008373ffffffffffffffffffffffffffffffffffffffff1673ffffffffffffffffffffffffffffffffffffffff16815260200190815260200160002060009054906101000a900460ff16905092915050565b611afd611dc1565b73ffffffffffffffffffffffffffffffffffffffff16611b1b611453565b73ffffffffffffffffffffffffffffffffffffffff1614611b71576040517f08c379a0000000000000000000000000000000000000000000000000000000008152600401611b6890613e09565b60405180910390fd5b80600a9080519060200190611b87929190613307565b5050565b611b93611dc1565b73ffffffffffffffffffffffffffffffffffffffff16611bb1611453565b73ffffffffffffffffffffffffffffffffffffffff1614611c07576040517f08c379a0000000000000000000000000000000000000000000000000000000008152600401611bfe90613e09565b60405180910390fd5b600073ffffffffffffffffffffffffffffffffffffffff168173ffffffffffffffffffffffffffffffffffffffff161415611c77576040517f08c379a0000000000000000000000000000000000000000000000000000000008152600401611c6e90613da9565b60405180910390fd5b611c808161279a565b50565b611c8b611dc1565b73ffffffffffffffffffffffffffffffffffffffff16611ca9611453565b73ffffffffffffffffffffffffffffffffffffffff1614611cff576040517f08c379a0000000000000000000000000000000000000000000000000000000008152600401611cf690613e09565b60405180910390fd5b80600d8190555050565b60007f01ffc9a7000000000000000000000000000000000000000000000000000000007bffffffffffffffffffffffffffffffffffffffffffffffffffffffff1916827bffffffffffffffffffffffffffffffffffffffffffffffffffffffff1916149050919050565b600081611d7e611e7b565b11158015611d8d575060005482105b8015611dba575060046000838152602001908152602001600020600001601c9054906101000a900460ff16155b9050919050565b600033905090565b826006600084815260200190815260200160002060006101000a81548173ffffffffffffffffffffffffffffffffffffffff021916908373ffffffffffffffffffffffffffffffffffffffff160217905550818373ffffffffffffffffffffffffffffffffffffffff168273ffffffffffffffffffffffffffffffffffffffff167f8c5be1e5ebec7d5bd14f71427d1e84f3dd0314c0f7b2291e5b200ac8c7c3b92560405160405180910390a4505050565b600090565b6000611e8b8261250f565b90508373ffffffffffffffffffffffffffffffffffffffff16816000015173ffffffffffffffffffffffffffffffffffffffff1614611ef6576040517fa114810000000000000000000000000000000000000000000000000000000000815260040160405180910390fd5b60008473ffffffffffffffffffffffffffffffffffffffff16611f17611dc1565b73ffffffffffffffffffffffffffffffffffffffff161480611f465750611f4585611f40611dc1565b611a61565b5b80611f8b5750611f54611dc1565b73ffffffffffffffffffffffffffffffffffffffff16611f73846109e6565b73ffffffffffffffffffffffffffffffffffffffff16145b905080611fc4576040517f59c896be00000000000000000000000000000000000000000000000000000000815260040160405180910390fd5b600073ffffffffffffffffffffffffffffffffffffffff168473ffffffffffffffffffffffffffffffffffffffff16141561202b576040517fea553b3400000000000000000000000000000000000000000000000000000000815260040160405180910390fd5b6120388585856001612aec565b61204460008487611dc9565b6001600560008773ffffffffffffffffffffffffffffffffffffffff1673ffffffffffffffffffffffffffffffffffffffff16815260200190815260200160002060000160008282829054906101000a900467ffffffffffffffff160392506101000a81548167ffffffffffffffff021916908367ffffffffffffffff1602179055506001600560008673ffffffffffffffffffffffffffffffffffffffff1673ffffffffffffffffffffffffffffffffffffffff16815260200190815260200160002060000160008282829054906101000a900467ffffffffffffffff160192506101000a81548167ffffffffffffffff021916908367ffffffffffffffff1602179055506000600460008581526020019081526020016000209050848160000160006101000a81548173ffffffffffffffffffffffffffffffffffffffff021916908373ffffffffffffffffffffffffffffffffffffffff160217905550428160000160146101000a81548167ffffffffffffffff021916908367ffffffffffffffff16021790555060006001850190506000600460008381526020019081526020016000209050600073ffffffffffffffffffffffffffffffffffffffff168160000160009054906101000a900473ffffffffffffffffffffffffffffffffffffffff1673ffffffffffffffffffffffffffffffffffffffff1614156122c45760005482146122c357878160000160006101000a81548173ffffffffffffffffffffffffffffffffffffffff021916908373ffffffffffffffffffffffffffffffffffffffff16021790555084602001518160000160146101000a81548167ffffffffffffffff021916908367ffffffffffffffff1602179055505b5b505050828473ffffffffffffffffffffffffffffffffffffffff168673ffffffffffffffffffffffffffffffffffffffff167fddf252ad1be2c89b69c2b068fc378daa952ba7f163c4a11628f55a4df523b3ef60405160405180910390a461232f8585856001612af2565b5050505050565b60006123ac838380806020026020016040519081016040528093929190818152602001838360200280828437600081840152601f19601f82011690508083019250505050505050600e54336040516020016123919190613bff565b60405160208183030381529060405280519060200120612af8565b905092915050565b600c54816123c133611a4f565b6123cb9190613f83565b111561240c576040517f08c379a000000000000000000000000000000000000000000000000000000000815260040161240390613d89565b60405180910390fd5b6103e881612418610bed565b6124229190613f83565b1115612463576040517f08c379a000000000000000000000000000000000000000000000000000000000815260040161245a90613e29565b60405180910390fd5b34600d5482612472919061400a565b11156124b3576040517f08c379a00000000000000000000000000000000000000000000000000000000081526004016124aa90613dc9565b60405180910390fd5b6124bd3382612b0f565b6124d381600d546124ce919061400a565b612b2d565b7f30385c845b448a36257a6a1716e6ad2e1bc2cbe333cde1e69fe849ad6511adfe3382604051612504929190613cc9565b60405180910390a150565b61251761338d565b600082905080612525611e7b565b1161276357600054811015612762576000600460008381526020019081526020016000206040518060600160405290816000820160009054906101000a900473ffffffffffffffffffffffffffffffffffffffff1673ffffffffffffffffffffffffffffffffffffffff1673ffffffffffffffffffffffffffffffffffffffff1681526020016000820160149054906101000a900467ffffffffffffffff1667ffffffffffffffff1667ffffffffffffffff16815260200160008201601c9054906101000a900460ff1615151515815250509050806040015161276057600073ffffffffffffffffffffffffffffffffffffffff16816000015173ffffffffffffffffffffffffffffffffffffffff1614612644578092505050612795565b5b60011561275f57818060019003925050600460008381526020019081526020016000206040518060600160405290816000820160009054906101000a900473ffffffffffffffffffffffffffffffffffffffff1673ffffffffffffffffffffffffffffffffffffffff1673ffffffffffffffffffffffffffffffffffffffff1681526020016000820160149054906101000a900467ffffffffffffffff1667ffffffffffffffff1667ffffffffffffffff16815260200160008201601c9054906101000a900460ff1615151515815250509050600073ffffffffffffffffffffffffffffffffffffffff16816000015173ffffffffffffffffffffffffffffffffffffffff161461275a578092505050612795565b612645565b5b505b5b6040517fdf2d9b4200000000000000000000000000000000000000000000000000000000815260040160405180910390fd5b919050565b6000600860009054906101000a900473ffffffffffffffffffffffffffffffffffffffff16905081600860006101000a81548173ffffffffffffffffffffffffffffffffffffffff021916908373ffffffffffffffffffffffffffffffffffffffff1602179055508173ffffffffffffffffffffffffffffffffffffffff168173ffffffffffffffffffffffffffffffffffffffff167f8be0079c531659141344cd1fd0a4f28419497f9722a3daafe3b4186f6b6457e060405160405180910390a35050565b6000808273ffffffffffffffffffffffffffffffffffffffff163b119050919050565b60008373ffffffffffffffffffffffffffffffffffffffff1663150b7a026128a9611dc1565b8786866040518563ffffffff1660e01b81526004016128cb9493929190613c7d565b602060405180830381600087803b1580156128e557600080fd5b505af192505050801561291657506040513d601f19601f820116820180604052508101906129139190613835565b60015b612990573d8060008114612946576040519150601f19603f3d011682016040523d82523d6000602084013e61294b565b606091505b50600081511415612988576040517fd1a57ed600000000000000000000000000000000000000000000000000000000815260040160405180910390fd5b805181602001fd5b63150b7a0260e01b7bffffffffffffffffffffffffffffffffffffffffffffffffffffffff1916817bffffffffffffffffffffffffffffffffffffffffffffffffffffffff191614915050949350505050565b60606129ee82611d73565b612a24576040517fa14c4b5000000000000000000000000000000000000000000000000000000000815260040160405180910390fd5b6000612a2e612bce565b9050600081511415612a4f5760405180602001604052806000815250612a7a565b80612a5984612c60565b604051602001612a6a929190613c1a565b6040516020818303038152906040525b915050919050565b6000600560008373ffffffffffffffffffffffffffffffffffffffff1673ffffffffffffffffffffffffffffffffffffffff16815260200190815260200160002060000160089054906101000a900467ffffffffffffffff1667ffffffffffffffff169050919050565b50505050565b50505050565b600082612b058584612e0d565b1490509392505050565b612b29828260405180602001604052806000815250612ea8565b5050565b80341015612b70576040517f08c379a0000000000000000000000000000000000000000000000000000000008152600401612b6790613dc9565b60405180910390fd5b80341115612bcb573373ffffffffffffffffffffffffffffffffffffffff166108fc8234612b9e9190614064565b9081150290604051600060405180830381858888f19350505050158015612bc9573d6000803e3d6000fd5b505b50565b606060098054612bdd9061417d565b80601f0160208091040260200160405190810160405280929190818152602001828054612c099061417d565b8015612c565780601f10612c2b57610100808354040283529160200191612c56565b820191906000526020600020905b815481529060010190602001808311612c3957829003601f168201915b5050505050905090565b60606000821415612ca8576040518060400160405280600181526020017f30000000000000000000000000000000000000000000000000000000000000008152509050612e08565b600082905060005b60008214612cda578080612cc3906141e0565b915050600a82612cd39190613fd9565b9150612cb0565b60008167ffffffffffffffff811115612d1c577f4e487b7100000000000000000000000000000000000000000000000000000000600052604160045260246000fd5b6040519080825280601f01601f191660200182016040528015612d4e5781602001600182028036833780820191505090505b5090505b60008514612e0157600182612d679190614064565b9150600a85612d76919061424d565b6030612d829190613f83565b60f81b818381518110612dbe577f4e487b7100000000000000000000000000000000000000000000000000000000600052603260045260246000fd5b60200101907effffffffffffffffffffffffffffffffffffffffffffffffffffffffffffff1916908160001a905350600a85612dfa9190613fd9565b9450612d52565b8093505050505b919050565b60008082905060005b8451811015612e9d576000858281518110612e5a577f4e487b7100000000000000000000000000000000000000000000000000000000600052603260045260246000fd5b60200260200101519050808311612e7c57612e75838261326a565b9250612e89565b612e86818461326a565b92505b508080612e95906141e0565b915050612e16565b508091505092915050565b600080549050600073ffffffffffffffffffffffffffffffffffffffff168473ffffffffffffffffffffffffffffffffffffffff161415612f15576040517f2e07630000000000000000000000000000000000000000000000000000000000815260040160405180910390fd5b6000831415612f50576040517fb562e8dd00000000000000000000000000000000000000000000000000000000815260040160405180910390fd5b612f5d6000858386612aec565b82600560008673ffffffffffffffffffffffffffffffffffffffff1673ffffffffffffffffffffffffffffffffffffffff16815260200190815260200160002060000160008282829054906101000a900467ffffffffffffffff160192506101000a81548167ffffffffffffffff021916908367ffffffffffffffff16021790555082600560008673ffffffffffffffffffffffffffffffffffffffff1673ffffffffffffffffffffffffffffffffffffffff16815260200190815260200160002060000160088282829054906101000a900467ffffffffffffffff160192506101000a81548167ffffffffffffffff021916908367ffffffffffffffff160217905550836004600083815260200190815260200160002060000160006101000a81548173ffffffffffffffffffffffffffffffffffffffff021916908373ffffffffffffffffffffffffffffffffffffffff160217905550426004600083815260200190815260200160002060000160146101000a81548167ffffffffffffffff021916908367ffffffffffffffff16021790555060008190506000848201905061311e8673ffffffffffffffffffffffffffffffffffffffff16612860565b156131e3575b818673ffffffffffffffffffffffffffffffffffffffff16600073ffffffffffffffffffffffffffffffffffffffff167fddf252ad1be2c89b69c2b068fc378daa952ba7f163c4a11628f55a4df523b3ef60405160405180910390a46131936000878480600101955087612883565b6131c9576040517fd1a57ed600000000000000000000000000000000000000000000000000000000815260040160405180910390fd5b8082106131245782600054146131de57600080fd5b61324e565b5b818060010192508673ffffffffffffffffffffffffffffffffffffffff16600073ffffffffffffffffffffffffffffffffffffffff167fddf252ad1be2c89b69c2b068fc378daa952ba7f163c4a11628f55a4df523b3ef60405160405180910390a48082106131e4575b8160008190555050506132646000858386612af2565b50505050565b600082600052816020526040600020905092915050565b82805461328d9061417d565b90600052602060002090601f0160209004810192826132af57600085556132f6565b82601f106132c857803560ff19168380011785556132f6565b828001600101855582156132f6579182015b828111156132f55782358255916020019190600101906132da565b5b50905061330391906133d0565b5090565b8280546133139061417d565b90600052602060002090601f016020900481019282613335576000855561337c565b82601f1061334e57805160ff191683800117855561337c565b8280016001018555821561337c579182015b8281111561337b578251825591602001919060010190613360565b5b50905061338991906133d0565b5090565b6040518060600160405280600073ffffffffffffffffffffffffffffffffffffffff168152602001600067ffffffffffffffff1681526020016000151581525090565b5b808211156133e95760008160009055506001016133d1565b5090565b60006134006133fb84613ec9565b613ea4565b90508281526020810184848401111561341857600080fd5b61342384828561413b565b509392505050565b600061343e61343984613efa565b613ea4565b90508281526020810184848401111561345657600080fd5b61346184828561413b565b509392505050565b60008135905061347881614555565b92915050565b60008083601f84011261349057600080fd5b8235905067ffffffffffffffff8111156134a957600080fd5b6020830191508360208202830111156134c157600080fd5b9250929050565b6000813590506134d78161456c565b92915050565b6000813590506134ec81614583565b92915050565b6000813590506135018161459a565b92915050565b6000815190506135168161459a565b92915050565b600082601f83011261352d57600080fd5b813561353d8482602086016133ed565b91505092915050565b600081359050613555816145b1565b92915050565b60008083601f84011261356d57600080fd5b8235905067ffffffffffffffff81111561358657600080fd5b60208301915083600182028301111561359e57600080fd5b9250929050565b600082601f8301126135b657600080fd5b81356135c684826020860161342b565b91505092915050565b6000813590506135de816145c1565b92915050565b6000602082840312156135f657600080fd5b600061360484828501613469565b91505092915050565b6000806040838503121561362057600080fd5b600061362e85828601613469565b925050602061363f85828601613469565b9150509250929050565b60008060006060848603121561365e57600080fd5b600061366c86828701613469565b935050602061367d86828701613469565b925050604061368e868287016135cf565b9150509250925092565b600080600080608085870312156136ae57600080fd5b60006136bc87828801613469565b94505060206136cd87828801613469565b93505060406136de878288016135cf565b925050606085013567ffffffffffffffff8111156136fb57600080fd5b6137078782880161351c565b91505092959194509250565b6000806040838503121561372657600080fd5b600061373485828601613469565b9250506020613745858286016134c8565b9150509250929050565b6000806040838503121561376257600080fd5b600061377085828601613469565b9250506020613781858286016135cf565b9150509250929050565b6000806000604084860312156137a057600080fd5b600084013567ffffffffffffffff8111156137ba57600080fd5b6137c68682870161347e565b935093505060206137d9868287016135cf565b9150509250925092565b6000602082840312156137f557600080fd5b6000613803848285016134dd565b91505092915050565b60006020828403121561381e57600080fd5b600061382c848285016134f2565b91505092915050565b60006020828403121561384757600080fd5b600061385584828501613507565b91505092915050565b60006020828403121561387057600080fd5b600061387e84828501613546565b91505092915050565b6000806020838503121561389a57600080fd5b600083013567ffffffffffffffff8111156138b457600080fd5b6138c08582860161355b565b92509250509250929050565b6000602082840312156138de57600080fd5b600082013567ffffffffffffffff8111156138f857600080fd5b613904848285016135a5565b91505092915050565b60006020828403121561391f57600080fd5b600061392d848285016135cf565b91505092915050565b61393f81614098565b82525050565b61395661395182614098565b614229565b82525050565b613965816140aa565b82525050565b613974816140b6565b82525050565b600061398582613f40565b61398f8185613f56565b935061399f81856020860161414a565b6139a881614369565b840191505092915050565b6139bc81614129565b82525050565b60006139ce8385613f67565b93506139db83858461413b565b6139e483614369565b840190509392505050565b60006139fa82613f4b565b613a048185613f67565b9350613a1481856020860161414a565b613a1d81614369565b840191505092915050565b6000613a3382613f4b565b613a3d8185613f78565b9350613a4d81856020860161414a565b80840191505092915050565b60008154613a668161417d565b613a708186613f78565b94506001821660008114613a8b5760018114613a9c57613acf565b60ff19831686528186019350613acf565b613aa585613f2b565b60005b83811015613ac757815481890152600182019150602081019050613aa8565b838801955050505b50505092915050565b6000613ae5602a83613f67565b9150613af082614387565b604082019050919050565b6000613b08602683613f67565b9150613b13826143d6565b604082019050919050565b6000613b2b601a83613f67565b9150613b3682614425565b602082019050919050565b6000613b4e600883613f67565b9150613b598261444e565b602082019050919050565b6000613b71602083613f67565b9150613b7c82614477565b602082019050919050565b6000613b94602383613f67565b9150613b9f826144a0565b604082019050919050565b6000613bb7601a83613f67565b9150613bc2826144ef565b602082019050919050565b6000613bda601a83613f67565b9150613be582614518565b602082019050919050565b613bf98161411f565b82525050565b6000613c0b8284613945565b60148201915081905092915050565b6000613c268285613a28565b9150613c328284613a28565b91508190509392505050565b6000613c4a8285613a28565b9150613c568284613a59565b91508190509392505050565b6000602082019050613c776000830184613936565b92915050565b6000608082019050613c926000830187613936565b613c9f6020830186613936565b613cac6040830185613bf0565b8181036060830152613cbe818461397a565b905095945050505050565b6000604082019050613cde6000830185613936565b613ceb6020830184613bf0565b9392505050565b6000602082019050613d07600083018461395c565b92915050565b6000602082019050613d22600083018461396b565b92915050565b6000602082019050613d3d60008301846139b3565b92915050565b60006020820190508181036000830152613d5e8184866139c2565b90509392505050565b60006020820190508181036000830152613d8181846139ef565b905092915050565b60006020820190508181036000830152613da281613ad8565b9050919050565b60006020820190508181036000830152613dc281613afb565b9050919050565b60006020820190508181036000830152613de281613b1e565b9050919050565b60006020820190508181036000830152613e0281613b41565b9050919050565b60006020820190508181036000830152613e2281613b64565b9050919050565b60006020820190508181036000830152613e4281613b87565b9050919050565b60006020820190508181036000830152613e6281613baa565b9050919050565b60006020820190508181036000830152613e8281613bcd565b9050919050565b6000602082019050613e9e6000830184613bf0565b92915050565b6000613eae613ebf565b9050613eba82826141af565b919050565b6000604051905090565b600067ffffffffffffffff821115613ee457613ee361433a565b5b613eed82614369565b9050602081019050919050565b600067ffffffffffffffff821115613f1557613f1461433a565b5b613f1e82614369565b9050602081019050919050565b60008190508160005260206000209050919050565b600081519050919050565b600081519050919050565b600082825260208201905092915050565b600082825260208201905092915050565b600081905092915050565b6000613f8e8261411f565b9150613f998361411f565b9250827fffffffffffffffffffffffffffffffffffffffffffffffffffffffffffffffff03821115613fce57613fcd61427e565b5b828201905092915050565b6000613fe48261411f565b9150613fef8361411f565b925082613fff57613ffe6142ad565b5b828204905092915050565b60006140158261411f565b91506140208361411f565b9250817fffffffffffffffffffffffffffffffffffffffffffffffffffffffffffffffff04831182151516156140595761405861427e565b5b828202905092915050565b600061406f8261411f565b915061407a8361411f565b92508282101561408d5761408c61427e565b5b828203905092915050565b60006140a3826140ff565b9050919050565b60008115159050919050565b6000819050919050565b60007fffffffff0000000000000000000000000000000000000000000000000000000082169050919050565b60008190506140fa82614541565b919050565b600073ffffffffffffffffffffffffffffffffffffffff82169050919050565b6000819050919050565b6000614134826140ec565b9050919050565b82818337600083830152505050565b60005b8381101561416857808201518184015260208101905061414d565b83811115614177576000848401525b50505050565b6000600282049050600182168061419557607f821691505b602082108114156141a9576141a861430b565b5b50919050565b6141b882614369565b810181811067ffffffffffffffff821117156141d7576141d661433a565b5b80604052505050565b60006141eb8261411f565b91507fffffffffffffffffffffffffffffffffffffffffffffffffffffffffffffffff82141561421e5761421d61427e565b5b600182019050919050565b60006142348261423b565b9050919050565b60006142468261437a565b9050919050565b60006142588261411f565b91506142638361411f565b925082614273576142726142ad565b5b828206905092915050565b7f4e487b7100000000000000000000000000000000000000000000000000000000600052601160045260246000fd5b7f4e487b7100000000000000000000000000000000000000000000000000000000600052601260045260246000fd5b7f4e487b7100000000000000000000000000000000000000000000000000000000600052602160045260246000fd5b7f4e487b7100000000000000000000000000000000000000000000000000000000600052602260045260246000fd5b7f4e487b7100000000000000000000000000000000000000000000000000000000600052604160045260246000fd5b6000601f19601f8301169050919050565b60008160601b9050919050565b7f55432d4e3a2065786365656420746865206d6178206c696d6974206f6620656160008201527f6368206163636f756e7400000000000000000000000000000000000000000000602082015250565b7f4f776e61626c653a206e6577206f776e657220697320746865207a65726f206160008201527f6464726573730000000000000000000000000000000000000000000000000000602082015250565b7f55432d4e3a204e6f7420656e676f757468204554482073656e74000000000000600082015250565b7f454f41204f6e6c79000000000000000000000000000000000000000000000000600082015250565b7f4f776e61626c653a2063616c6c6572206973206e6f7420746865206f776e6572600082015250565b7f55432d4e3a206578636565642074686520746f74616c20746f6b656e20616d6f60008201527f756e740000000000000000000000000000000000000000000000000000000000602082015250565b7f55432d4e3a206e6f742061626c6520746f206d696e7420796574000000000000600082015250565b7f55432d4e3a20496e76616c6964206d65726b6c652070726f6f66000000000000600082015250565b60048110614552576145516142dc565b5b50565b61455e81614098565b811461456957600080fd5b50565b614575816140aa565b811461458057600080fd5b50565b61458c816140b6565b811461459757600080fd5b50565b6145a3816140c0565b81146145ae57600080fd5b50565b600481106145be57600080fd5b50565b6145ca8161411f565b81146145d557600080fd5b5056fea26469706673582212209407effc6ad4abe720288e0ec0f696760a429578a560117d270308feaca9e1de64736f6c63430008040033",
  "linkReferences": {},
  "deployedLinkReferences": {}
}